{
  "_format": "hh-sol-artifact-1",
  "contractName": "AppContract",
  "sourceName": "contracts/AppContract.sol",
  "abi": [
    {
      "inputs": [
        {
          "internalType": "string",
          "name": "uri_",
          "type": "string"
        },
        {
          "internalType": "uint256",
          "name": "_price",
          "type": "uint256"
        },
        {
          "internalType": "address",
          "name": "_routerAddress",
          "type": "address"
        }
      ],
      "stateMutability": "nonpayable",
      "type": "constructor"
    },
    {
      "anonymous": false,
      "inputs": [
        {
          "indexed": true,
          "internalType": "address",
          "name": "account",
          "type": "address"
        },
        {
          "indexed": true,
          "internalType": "address",
          "name": "operator",
          "type": "address"
        },
        {
          "indexed": false,
          "internalType": "bool",
          "name": "approved",
          "type": "bool"
        }
      ],
      "name": "ApprovalForAll",
      "type": "event"
    },
    {
      "anonymous": false,
      "inputs": [
        {
          "indexed": true,
          "internalType": "address",
          "name": "previousOwner",
          "type": "address"
        },
        {
          "indexed": true,
          "internalType": "address",
          "name": "newOwner",
          "type": "address"
        }
      ],
      "name": "OwnershipTransferred",
      "type": "event"
    },
    {
      "anonymous": false,
      "inputs": [
        {
          "indexed": true,
          "internalType": "address",
          "name": "operator",
          "type": "address"
        },
        {
          "indexed": true,
          "internalType": "address",
          "name": "from",
          "type": "address"
        },
        {
          "indexed": true,
          "internalType": "address",
          "name": "to",
          "type": "address"
        },
        {
          "indexed": false,
          "internalType": "uint256[]",
          "name": "ids",
          "type": "uint256[]"
        },
        {
          "indexed": false,
          "internalType": "uint256[]",
          "name": "values",
          "type": "uint256[]"
        }
      ],
      "name": "TransferBatch",
      "type": "event"
    },
    {
      "anonymous": false,
      "inputs": [
        {
          "indexed": true,
          "internalType": "address",
          "name": "operator",
          "type": "address"
        },
        {
          "indexed": true,
          "internalType": "address",
          "name": "from",
          "type": "address"
        },
        {
          "indexed": true,
          "internalType": "address",
          "name": "to",
          "type": "address"
        },
        {
          "indexed": false,
          "internalType": "uint256",
          "name": "id",
          "type": "uint256"
        },
        {
          "indexed": false,
          "internalType": "uint256",
          "name": "value",
          "type": "uint256"
        }
      ],
      "name": "TransferSingle",
      "type": "event"
    },
    {
      "anonymous": false,
      "inputs": [
        {
          "indexed": false,
          "internalType": "string",
          "name": "value",
          "type": "string"
        },
        {
          "indexed": true,
          "internalType": "uint256",
          "name": "id",
          "type": "uint256"
        }
      ],
      "name": "URI",
      "type": "event"
    },
    {
      "inputs": [],
      "name": "appPrice",
      "outputs": [
        {
          "internalType": "uint256",
          "name": "",
          "type": "uint256"
        }
      ],
      "stateMutability": "view",
      "type": "function"
    },
    {
      "inputs": [
        {
          "internalType": "address",
          "name": "account",
          "type": "address"
        },
        {
          "internalType": "uint256",
          "name": "id",
          "type": "uint256"
        }
      ],
      "name": "balanceOf",
      "outputs": [
        {
          "internalType": "uint256",
          "name": "",
          "type": "uint256"
        }
      ],
      "stateMutability": "view",
      "type": "function"
    },
    {
      "inputs": [
        {
          "internalType": "address[]",
          "name": "accounts",
          "type": "address[]"
        },
        {
          "internalType": "uint256[]",
          "name": "ids",
          "type": "uint256[]"
        }
      ],
      "name": "balanceOfBatch",
      "outputs": [
        {
          "internalType": "uint256[]",
          "name": "",
          "type": "uint256[]"
        }
      ],
      "stateMutability": "view",
      "type": "function"
    },
    {
      "inputs": [
        {
          "internalType": "address",
          "name": "to",
          "type": "address"
        },
        {
          "internalType": "uint256",
          "name": "id",
          "type": "uint256"
        }
      ],
      "name": "buyPack",
      "outputs": [],
      "stateMutability": "payable",
      "type": "function"
    },
    {
      "inputs": [
        {
          "internalType": "uint256",
          "name": "quantity",
          "type": "uint256"
        },
        {
          "internalType": "uint256",
          "name": "price",
          "type": "uint256"
        },
        {
          "internalType": "address",
          "name": "caller",
          "type": "address"
        }
      ],
      "name": "createPack",
      "outputs": [],
      "stateMutability": "nonpayable",
      "type": "function"
    },
    {
      "inputs": [],
      "name": "getAllPacks",
      "outputs": [
        {
          "components": [
            {
              "internalType": "uint256",
              "name": "price",
              "type": "uint256"
            },
            {
              "internalType": "uint256",
              "name": "maxQuantity",
              "type": "uint256"
            },
            {
              "internalType": "uint256",
              "name": "amountMinted",
              "type": "uint256"
            }
          ],
          "internalType": "struct AppContract.Pack[]",
          "name": "",
          "type": "tuple[]"
        }
      ],
      "stateMutability": "view",
      "type": "function"
    },
    {
      "inputs": [
        {
          "internalType": "address",
          "name": "account",
          "type": "address"
        },
        {
          "internalType": "address",
          "name": "operator",
          "type": "address"
        }
      ],
      "name": "isApprovedForAll",
      "outputs": [
        {
          "internalType": "bool",
          "name": "",
          "type": "bool"
        }
      ],
      "stateMutability": "view",
      "type": "function"
    },
    {
      "inputs": [],
      "name": "owner",
      "outputs": [
        {
          "internalType": "address",
          "name": "",
          "type": "address"
        }
      ],
      "stateMutability": "view",
      "type": "function"
    },
    {
      "inputs": [],
      "name": "renounceOwnership",
      "outputs": [],
      "stateMutability": "nonpayable",
      "type": "function"
    },
    {
      "inputs": [],
      "name": "router",
      "outputs": [
        {
          "internalType": "contract IAppRouter",
          "name": "",
          "type": "address"
        }
      ],
      "stateMutability": "view",
      "type": "function"
    },
    {
      "inputs": [
        {
          "internalType": "address",
          "name": "from",
          "type": "address"
        },
        {
          "internalType": "address",
          "name": "to",
          "type": "address"
        },
        {
          "internalType": "uint256[]",
          "name": "ids",
          "type": "uint256[]"
        },
        {
          "internalType": "uint256[]",
          "name": "amounts",
          "type": "uint256[]"
        },
        {
          "internalType": "bytes",
          "name": "data",
          "type": "bytes"
        }
      ],
      "name": "safeBatchTransferFrom",
      "outputs": [],
      "stateMutability": "nonpayable",
      "type": "function"
    },
    {
      "inputs": [
        {
          "internalType": "address",
          "name": "from",
          "type": "address"
        },
        {
          "internalType": "address",
          "name": "to",
          "type": "address"
        },
        {
          "internalType": "uint256",
          "name": "id",
          "type": "uint256"
        },
        {
          "internalType": "uint256",
          "name": "amount",
          "type": "uint256"
        },
        {
          "internalType": "bytes",
          "name": "data",
          "type": "bytes"
        }
      ],
      "name": "safeTransferFrom",
      "outputs": [],
      "stateMutability": "nonpayable",
      "type": "function"
    },
    {
      "inputs": [
        {
          "internalType": "address",
          "name": "operator",
          "type": "address"
        },
        {
          "internalType": "bool",
          "name": "approved",
          "type": "bool"
        }
      ],
      "name": "setApprovalForAll",
      "outputs": [],
      "stateMutability": "nonpayable",
      "type": "function"
    },
    {
      "inputs": [
        {
          "internalType": "bytes4",
          "name": "interfaceId",
          "type": "bytes4"
        }
      ],
      "name": "supportsInterface",
      "outputs": [
        {
          "internalType": "bool",
          "name": "",
          "type": "bool"
        }
      ],
      "stateMutability": "view",
      "type": "function"
    },
    {
      "inputs": [
        {
          "internalType": "address",
          "name": "newOwner",
          "type": "address"
        }
      ],
      "name": "transferOwnership",
      "outputs": [],
      "stateMutability": "nonpayable",
      "type": "function"
    },
    {
      "inputs": [
        {
          "internalType": "uint256",
          "name": "",
          "type": "uint256"
        }
      ],
      "name": "uri",
      "outputs": [
        {
          "internalType": "string",
          "name": "",
          "type": "string"
        }
      ],
      "stateMutability": "view",
      "type": "function"
    }
  ],
  "bytecode": "0x60806040523480156200001157600080fd5b5060405162003ab638038062003ab683398181016040528101906200003791906200048a565b8262000049816200015e60201b60201c565b506200006a6200005e6200017360201b60201c565b6200017b60201b60201c565b816005819055506200008360046200024160201b60201c565b80600660006101000a81548173ffffffffffffffffffffffffffffffffffffffff021916908373ffffffffffffffffffffffffffffffffffffffff160217905550600660009054906101000a900473ffffffffffffffffffffffffffffffffffffffff1673ffffffffffffffffffffffffffffffffffffffff166317a1d80f306040518263ffffffff1660e01b815260040162000121919062000516565b600060405180830381600087803b1580156200013c57600080fd5b505af115801562000151573d6000803e3d6000fd5b505050505050506200085b565b80600290816200016f919062000774565b5050565b600033905090565b6000600360009054906101000a900473ffffffffffffffffffffffffffffffffffffffff16905081600360006101000a81548173ffffffffffffffffffffffffffffffffffffffff021916908373ffffffffffffffffffffffffffffffffffffffff1602179055508173ffffffffffffffffffffffffffffffffffffffff168173ffffffffffffffffffffffffffffffffffffffff167f8be0079c531659141344cd1fd0a4f28419497f9722a3daafe3b4186f6b6457e060405160405180910390a35050565b6001816000016000828254019250508190555050565b6000604051905090565b600080fd5b600080fd5b600080fd5b600080fd5b6000601f19601f8301169050919050565b7f4e487b7100000000000000000000000000000000000000000000000000000000600052604160045260246000fd5b620002c08262000275565b810181811067ffffffffffffffff82111715620002e257620002e162000286565b5b80604052505050565b6000620002f762000257565b9050620003058282620002b5565b919050565b600067ffffffffffffffff82111562000328576200032762000286565b5b620003338262000275565b9050602081019050919050565b60005b838110156200036057808201518184015260208101905062000343565b60008484015250505050565b6000620003836200037d846200030a565b620002eb565b905082815260208101848484011115620003a257620003a162000270565b5b620003af84828562000340565b509392505050565b600082601f830112620003cf57620003ce6200026b565b5b8151620003e18482602086016200036c565b91505092915050565b6000819050919050565b620003ff81620003ea565b81146200040b57600080fd5b50565b6000815190506200041f81620003f4565b92915050565b600073ffffffffffffffffffffffffffffffffffffffff82169050919050565b6000620004528262000425565b9050919050565b620004648162000445565b81146200047057600080fd5b50565b600081519050620004848162000459565b92915050565b600080600060608486031215620004a657620004a562000261565b5b600084015167ffffffffffffffff811115620004c757620004c662000266565b5b620004d586828701620003b7565b9350506020620004e8868287016200040e565b9250506040620004fb8682870162000473565b9150509250925092565b620005108162000445565b82525050565b60006020820190506200052d600083018462000505565b92915050565b600081519050919050565b7f4e487b7100000000000000000000000000000000000000000000000000000000600052602260045260246000fd5b600060028204905060018216806200058657607f821691505b6020821081036200059c576200059b6200053e565b5b50919050565b60008190508160005260206000209050919050565b60006020601f8301049050919050565b600082821b905092915050565b600060088302620006067fffffffffffffffffffffffffffffffffffffffffffffffffffffffffffffffff82620005c7565b620006128683620005c7565b95508019841693508086168417925050509392505050565b6000819050919050565b6000620006556200064f6200064984620003ea565b6200062a565b620003ea565b9050919050565b6000819050919050565b620006718362000634565b6200068962000680826200065c565b848454620005d4565b825550505050565b600090565b620006a062000691565b620006ad81848462000666565b505050565b5b81811015620006d557620006c960008262000696565b600181019050620006b3565b5050565b601f8211156200072457620006ee81620005a2565b620006f984620005b7565b8101602085101562000709578190505b620007216200071885620005b7565b830182620006b2565b50505b505050565b600082821c905092915050565b6000620007496000198460080262000729565b1980831691505092915050565b600062000764838362000736565b9150826002028217905092915050565b6200077f8262000533565b67ffffffffffffffff8111156200079b576200079a62000286565b5b620007a782546200056d565b620007b4828285620006d9565b600060209050601f831160018114620007ec5760008415620007d7578287015190505b620007e3858262000756565b86555062000853565b601f198416620007fc86620005a2565b60005b828110156200082657848901518255600182019150602085019450602081019050620007ff565b8683101562000846578489015162000842601f89168262000736565b8355505b6001600288020188555050505b505050505050565b61324b806200086b6000396000f3fe6080604052600436106100f25760003560e01c806378f7772c1161008a578063e985e9c511610059578063e985e9c51461031a578063f242432a14610357578063f2fde38b14610380578063f887ea40146103a9576100f2565b806378f7772c146102725780638da5cb5b1461029b5780639859ad0e146102c6578063a22cb465146102f1576100f2565b80632eb2c2d6116100c65780632eb2c2d6146101d95780634e1273f414610202578063710687381461023f578063715018a61461025b576100f2565b8062fdd58e146100f757806301ffc9a7146101345780630e89341c146101715780630fc1dc95146101ae575b600080fd5b34801561010357600080fd5b5061011e60048036038101906101199190611c1a565b6103d4565b60405161012b9190611c69565b60405180910390f35b34801561014057600080fd5b5061015b60048036038101906101569190611cdc565b61049c565b6040516101689190611d24565b60405180910390f35b34801561017d57600080fd5b5061019860048036038101906101939190611d3f565b61057e565b6040516101a59190611dfc565b60405180910390f35b3480156101ba57600080fd5b506101c3610612565b6040516101d09190611c69565b60405180910390f35b3480156101e557600080fd5b5061020060048036038101906101fb919061201b565b610618565b005b34801561020e57600080fd5b50610229600480360381019061022491906121ad565b6106b9565b60405161023691906122e3565b60405180910390f35b61025960048036038101906102549190611c1a565b6107d2565b005b34801561026757600080fd5b5061027061084a565b005b34801561027e57600080fd5b5061029960048036038101906102949190612305565b61085e565b005b3480156102a757600080fd5b506102b061092a565b6040516102bd9190612367565b60405180910390f35b3480156102d257600080fd5b506102db610954565b6040516102e89190612473565b60405180910390f35b3480156102fd57600080fd5b50610318600480360381019061031391906124c1565b610a50565b005b34801561032657600080fd5b50610341600480360381019061033c9190612501565b610a66565b60405161034e9190611d24565b60405180910390f35b34801561036357600080fd5b5061037e60048036038101906103799190612541565b610afa565b005b34801561038c57600080fd5b506103a760048036038101906103a291906125d8565b610b9b565b005b3480156103b557600080fd5b506103be610c1e565b6040516103cb9190612664565b60405180910390f35b60008073ffffffffffffffffffffffffffffffffffffffff168373ffffffffffffffffffffffffffffffffffffffff1603610444576040517f08c379a000000000000000000000000000000000000000000000000000000000815260040161043b906126f1565b60405180910390fd5b60008083815260200190815260200160002060008473ffffffffffffffffffffffffffffffffffffffff1673ffffffffffffffffffffffffffffffffffffffff16815260200190815260200160002054905092915050565b60007fd9b67a26000000000000000000000000000000000000000000000000000000007bffffffffffffffffffffffffffffffffffffffffffffffffffffffff1916827bffffffffffffffffffffffffffffffffffffffffffffffffffffffff1916148061056757507f0e89341c000000000000000000000000000000000000000000000000000000007bffffffffffffffffffffffffffffffffffffffffffffffffffffffff1916827bffffffffffffffffffffffffffffffffffffffffffffffffffffffff1916145b80610577575061057682610c44565b5b9050919050565b60606002805461058d90612740565b80601f01602080910402602001604051908101604052809291908181526020018280546105b990612740565b80156106065780601f106105db57610100808354040283529160200191610606565b820191906000526020600020905b8154815290600101906020018083116105e957829003601f168201915b50505050509050919050565b60055481565b610620610cae565b73ffffffffffffffffffffffffffffffffffffffff168573ffffffffffffffffffffffffffffffffffffffff161480610666575061066585610660610cae565b610a66565b5b6106a5576040517f08c379a000000000000000000000000000000000000000000000000000000000815260040161069c906127e3565b60405180910390fd5b6106b28585858585610cb6565b5050505050565b606081518351146106ff576040517f08c379a00000000000000000000000000000000000000000000000000000000081526004016106f690612875565b60405180910390fd5b6000835167ffffffffffffffff81111561071c5761071b611e23565b5b60405190808252806020026020018201604052801561074a5781602001602082028036833780820191505090505b50905060005b84518110156107c75761079785828151811061076f5761076e612895565b5b602002602001015185838151811061078a57610789612895565b5b60200260200101516103d4565b8282815181106107aa576107a9612895565b5b602002602001018181525050806107c0906128f3565b9050610750565b508091505092915050565b6007600082815260200190815260200160002060000154341461082a576040517f08c379a000000000000000000000000000000000000000000000000000000000815260040161082190612987565b60405180910390fd5b6108468282600160405180602001604052806000815250610fd7565b5050565b610852611187565b61085c6000611205565b565b61086661092a565b73ffffffffffffffffffffffffffffffffffffffff168173ffffffffffffffffffffffffffffffffffffffff16146108d3576040517f08c379a00000000000000000000000000000000000000000000000000000000081526004016108ca90612a19565b60405180910390fd5b82600760006108e260046112cb565b815260200190815260200160002060010181905550816007600061090660046112cb565b81526020019081526020016000206000018190555061092560046112d9565b505050565b6000600360009054906101000a900473ffffffffffffffffffffffffffffffffffffffff16905090565b6060600061096260046112cb565b67ffffffffffffffff81111561097b5761097a611e23565b5b6040519080825280602002602001820160405280156109b457816020015b6109a1611b51565b8152602001906001900390816109995790505b5090506000600190505b6109c860046112cb565b811015610a485760076000828152602001908152602001600020604051806060016040529081600082015481526020016001820154815260200160028201548152505082600183610a199190612a39565b81518110610a2a57610a29612895565b5b60200260200101819052508080610a40906128f3565b9150506109be565b508091505090565b610a62610a5b610cae565b83836112ef565b5050565b6000600160008473ffffffffffffffffffffffffffffffffffffffff1673ffffffffffffffffffffffffffffffffffffffff16815260200190815260200160002060008373ffffffffffffffffffffffffffffffffffffffff1673ffffffffffffffffffffffffffffffffffffffff16815260200190815260200160002060009054906101000a900460ff16905092915050565b610b02610cae565b73ffffffffffffffffffffffffffffffffffffffff168573ffffffffffffffffffffffffffffffffffffffff161480610b485750610b4785610b42610cae565b610a66565b5b610b87576040517f08c379a0000000000000000000000000000000000000000000000000000000008152600401610b7e906127e3565b60405180910390fd5b610b94858585858561145b565b5050505050565b610ba3611187565b600073ffffffffffffffffffffffffffffffffffffffff168173ffffffffffffffffffffffffffffffffffffffff1603610c12576040517f08c379a0000000000000000000000000000000000000000000000000000000008152600401610c0990612adf565b60405180910390fd5b610c1b81611205565b50565b600660009054906101000a900473ffffffffffffffffffffffffffffffffffffffff1681565b60007f01ffc9a7000000000000000000000000000000000000000000000000000000007bffffffffffffffffffffffffffffffffffffffffffffffffffffffff1916827bffffffffffffffffffffffffffffffffffffffffffffffffffffffff1916149050919050565b600033905090565b8151835114610cfa576040517f08c379a0000000000000000000000000000000000000000000000000000000008152600401610cf190612b71565b60405180910390fd5b600073ffffffffffffffffffffffffffffffffffffffff168473ffffffffffffffffffffffffffffffffffffffff1603610d69576040517f08c379a0000000000000000000000000000000000000000000000000000000008152600401610d6090612c03565b60405180910390fd5b6000610d73610cae565b9050610d838187878787876116f6565b60005b8451811015610f34576000858281518110610da457610da3612895565b5b602002602001015190506000858381518110610dc357610dc2612895565b5b60200260200101519050600080600084815260200190815260200160002060008b73ffffffffffffffffffffffffffffffffffffffff1673ffffffffffffffffffffffffffffffffffffffff16815260200190815260200160002054905081811015610e64576040517f08c379a0000000000000000000000000000000000000000000000000000000008152600401610e5b90612c95565b60405180910390fd5b81810360008085815260200190815260200160002060008c73ffffffffffffffffffffffffffffffffffffffff1673ffffffffffffffffffffffffffffffffffffffff168152602001908152602001600020819055508160008085815260200190815260200160002060008b73ffffffffffffffffffffffffffffffffffffffff1673ffffffffffffffffffffffffffffffffffffffff1681526020019081526020016000206000828254610f199190612cb5565b9250508190555050505080610f2d906128f3565b9050610d86565b508473ffffffffffffffffffffffffffffffffffffffff168673ffffffffffffffffffffffffffffffffffffffff168273ffffffffffffffffffffffffffffffffffffffff167f4a39dc06d4c0dbc64b70af90fd698a233a518aa5d07e595d983b8c0526c8f7fb8787604051610fab929190612ce9565b60405180910390a4610fc18187878787876116fe565b610fcf818787878787611706565b505050505050565b600073ffffffffffffffffffffffffffffffffffffffff168473ffffffffffffffffffffffffffffffffffffffff1603611046576040517f08c379a000000000000000000000000000000000000000000000000000000000815260040161103d90612d92565b60405180910390fd5b6000611050610cae565b9050600061105d856118dd565b9050600061106a856118dd565b905061107b836000898585896116f6565b8460008088815260200190815260200160002060008973ffffffffffffffffffffffffffffffffffffffff1673ffffffffffffffffffffffffffffffffffffffff16815260200190815260200160002060008282546110da9190612cb5565b925050819055508673ffffffffffffffffffffffffffffffffffffffff16600073ffffffffffffffffffffffffffffffffffffffff168473ffffffffffffffffffffffffffffffffffffffff167fc3d58168c5ae7397731d063d5bbf3d657854427343f4c083240f7aacaa2d0f628989604051611158929190612db2565b60405180910390a461116f836000898585896116fe565b61117e83600089898989611957565b50505050505050565b61118f610cae565b73ffffffffffffffffffffffffffffffffffffffff166111ad61092a565b73ffffffffffffffffffffffffffffffffffffffff1614611203576040517f08c379a00000000000000000000000000000000000000000000000000000000081526004016111fa90612e27565b60405180910390fd5b565b6000600360009054906101000a900473ffffffffffffffffffffffffffffffffffffffff16905081600360006101000a81548173ffffffffffffffffffffffffffffffffffffffff021916908373ffffffffffffffffffffffffffffffffffffffff1602179055508173ffffffffffffffffffffffffffffffffffffffff168173ffffffffffffffffffffffffffffffffffffffff167f8be0079c531659141344cd1fd0a4f28419497f9722a3daafe3b4186f6b6457e060405160405180910390a35050565b600081600001549050919050565b6001816000016000828254019250508190555050565b8173ffffffffffffffffffffffffffffffffffffffff168373ffffffffffffffffffffffffffffffffffffffff160361135d576040517f08c379a000000000000000000000000000000000000000000000000000000000815260040161135490612eb9565b60405180910390fd5b80600160008573ffffffffffffffffffffffffffffffffffffffff1673ffffffffffffffffffffffffffffffffffffffff16815260200190815260200160002060008473ffffffffffffffffffffffffffffffffffffffff1673ffffffffffffffffffffffffffffffffffffffff16815260200190815260200160002060006101000a81548160ff0219169083151502179055508173ffffffffffffffffffffffffffffffffffffffff168373ffffffffffffffffffffffffffffffffffffffff167f17307eab39ab6107e8899845ad3d59bd9653f200f220920489ca2b5937696c318360405161144e9190611d24565b60405180910390a3505050565b600073ffffffffffffffffffffffffffffffffffffffff168473ffffffffffffffffffffffffffffffffffffffff16036114ca576040517f08c379a00000000000000000000000000000000000000000000000000000000081526004016114c190612c03565b60405180910390fd5b60006114d4610cae565b905060006114e1856118dd565b905060006114ee856118dd565b90506114fe8389898585896116f6565b600080600088815260200190815260200160002060008a73ffffffffffffffffffffffffffffffffffffffff1673ffffffffffffffffffffffffffffffffffffffff16815260200190815260200160002054905085811015611595576040517f08c379a000000000000000000000000000000000000000000000000000000000815260040161158c90612c95565b60405180910390fd5b85810360008089815260200190815260200160002060008b73ffffffffffffffffffffffffffffffffffffffff1673ffffffffffffffffffffffffffffffffffffffff168152602001908152602001600020819055508560008089815260200190815260200160002060008a73ffffffffffffffffffffffffffffffffffffffff1673ffffffffffffffffffffffffffffffffffffffff168152602001908152602001600020600082825461164a9190612cb5565b925050819055508773ffffffffffffffffffffffffffffffffffffffff168973ffffffffffffffffffffffffffffffffffffffff168573ffffffffffffffffffffffffffffffffffffffff167fc3d58168c5ae7397731d063d5bbf3d657854427343f4c083240f7aacaa2d0f628a8a6040516116c7929190612db2565b60405180910390a46116dd848a8a86868a6116fe565b6116eb848a8a8a8a8a611957565b505050505050505050565b505050505050565b505050505050565b6117258473ffffffffffffffffffffffffffffffffffffffff16611b2e565b156118d5578373ffffffffffffffffffffffffffffffffffffffff1663bc197c8187878686866040518663ffffffff1660e01b815260040161176b959493929190612f2e565b6020604051808303816000875af19250505080156117a757506040513d601f19601f820116820180604052508101906117a49190612fab565b60015b61184c576117b3612fe5565b806308c379a00361180f57506117c7613007565b806117d25750611811565b806040517f08c379a00000000000000000000000000000000000000000000000000000000081526004016118069190611dfc565b60405180910390fd5b505b6040517f08c379a000000000000000000000000000000000000000000000000000000000815260040161184390613109565b60405180910390fd5b63bc197c8160e01b7bffffffffffffffffffffffffffffffffffffffffffffffffffffffff1916817bffffffffffffffffffffffffffffffffffffffffffffffffffffffff1916146118d3576040517f08c379a00000000000000000000000000000000000000000000000000000000081526004016118ca9061319b565b60405180910390fd5b505b505050505050565b60606000600167ffffffffffffffff8111156118fc576118fb611e23565b5b60405190808252806020026020018201604052801561192a5781602001602082028036833780820191505090505b509050828160008151811061194257611941612895565b5b60200260200101818152505080915050919050565b6119768473ffffffffffffffffffffffffffffffffffffffff16611b2e565b15611b26578373ffffffffffffffffffffffffffffffffffffffff1663f23a6e6187878686866040518663ffffffff1660e01b81526004016119bc9594939291906131bb565b6020604051808303816000875af19250505080156119f857506040513d601f19601f820116820180604052508101906119f59190612fab565b60015b611a9d57611a04612fe5565b806308c379a003611a605750611a18613007565b80611a235750611a62565b806040517f08c379a0000000000000000000000000000000000000000000000000000000008152600401611a579190611dfc565b60405180910390fd5b505b6040517f08c379a0000000000000000000000000000000000000000000000000000000008152600401611a9490613109565b60405180910390fd5b63f23a6e6160e01b7bffffffffffffffffffffffffffffffffffffffffffffffffffffffff1916817bffffffffffffffffffffffffffffffffffffffffffffffffffffffff191614611b24576040517f08c379a0000000000000000000000000000000000000000000000000000000008152600401611b1b9061319b565b60405180910390fd5b505b505050505050565b6000808273ffffffffffffffffffffffffffffffffffffffff163b119050919050565b60405180606001604052806000815260200160008152602001600081525090565b6000604051905090565b600080fd5b600080fd5b600073ffffffffffffffffffffffffffffffffffffffff82169050919050565b6000611bb182611b86565b9050919050565b611bc181611ba6565b8114611bcc57600080fd5b50565b600081359050611bde81611bb8565b92915050565b6000819050919050565b611bf781611be4565b8114611c0257600080fd5b50565b600081359050611c1481611bee565b92915050565b60008060408385031215611c3157611c30611b7c565b5b6000611c3f85828601611bcf565b9250506020611c5085828601611c05565b9150509250929050565b611c6381611be4565b82525050565b6000602082019050611c7e6000830184611c5a565b92915050565b60007fffffffff0000000000000000000000000000000000000000000000000000000082169050919050565b611cb981611c84565b8114611cc457600080fd5b50565b600081359050611cd681611cb0565b92915050565b600060208284031215611cf257611cf1611b7c565b5b6000611d0084828501611cc7565b91505092915050565b60008115159050919050565b611d1e81611d09565b82525050565b6000602082019050611d396000830184611d15565b92915050565b600060208284031215611d5557611d54611b7c565b5b6000611d6384828501611c05565b91505092915050565b600081519050919050565b600082825260208201905092915050565b60005b83811015611da6578082015181840152602081019050611d8b565b60008484015250505050565b6000601f19601f8301169050919050565b6000611dce82611d6c565b611dd88185611d77565b9350611de8818560208601611d88565b611df181611db2565b840191505092915050565b60006020820190508181036000830152611e168184611dc3565b905092915050565b600080fd5b7f4e487b7100000000000000000000000000000000000000000000000000000000600052604160045260246000fd5b611e5b82611db2565b810181811067ffffffffffffffff82111715611e7a57611e79611e23565b5b80604052505050565b6000611e8d611b72565b9050611e998282611e52565b919050565b600067ffffffffffffffff821115611eb957611eb8611e23565b5b602082029050602081019050919050565b600080fd5b6000611ee2611edd84611e9e565b611e83565b90508083825260208201905060208402830185811115611f0557611f04611eca565b5b835b81811015611f2e5780611f1a8882611c05565b845260208401935050602081019050611f07565b5050509392505050565b600082601f830112611f4d57611f4c611e1e565b5b8135611f5d848260208601611ecf565b91505092915050565b600080fd5b600067ffffffffffffffff821115611f8657611f85611e23565b5b611f8f82611db2565b9050602081019050919050565b82818337600083830152505050565b6000611fbe611fb984611f6b565b611e83565b905082815260208101848484011115611fda57611fd9611f66565b5b611fe5848285611f9c565b509392505050565b600082601f83011261200257612001611e1e565b5b8135612012848260208601611fab565b91505092915050565b600080600080600060a0868803121561203757612036611b7c565b5b600061204588828901611bcf565b955050602061205688828901611bcf565b945050604086013567ffffffffffffffff81111561207757612076611b81565b5b61208388828901611f38565b935050606086013567ffffffffffffffff8111156120a4576120a3611b81565b5b6120b088828901611f38565b925050608086013567ffffffffffffffff8111156120d1576120d0611b81565b5b6120dd88828901611fed565b9150509295509295909350565b600067ffffffffffffffff82111561210557612104611e23565b5b602082029050602081019050919050565b6000612129612124846120ea565b611e83565b9050808382526020820190506020840283018581111561214c5761214b611eca565b5b835b8181101561217557806121618882611bcf565b84526020840193505060208101905061214e565b5050509392505050565b600082601f83011261219457612193611e1e565b5b81356121a4848260208601612116565b91505092915050565b600080604083850312156121c4576121c3611b7c565b5b600083013567ffffffffffffffff8111156121e2576121e1611b81565b5b6121ee8582860161217f565b925050602083013567ffffffffffffffff81111561220f5761220e611b81565b5b61221b85828601611f38565b9150509250929050565b600081519050919050565b600082825260208201905092915050565b6000819050602082019050919050565b61225a81611be4565b82525050565b600061226c8383612251565b60208301905092915050565b6000602082019050919050565b600061229082612225565b61229a8185612230565b93506122a583612241565b8060005b838110156122d65781516122bd8882612260565b97506122c883612278565b9250506001810190506122a9565b5085935050505092915050565b600060208201905081810360008301526122fd8184612285565b905092915050565b60008060006060848603121561231e5761231d611b7c565b5b600061232c86828701611c05565b935050602061233d86828701611c05565b925050604061234e86828701611bcf565b9150509250925092565b61236181611ba6565b82525050565b600060208201905061237c6000830184612358565b92915050565b600081519050919050565b600082825260208201905092915050565b6000819050602082019050919050565b6060820160008201516123c46000850182612251565b5060208201516123d76020850182612251565b5060408201516123ea6040850182612251565b50505050565b60006123fc83836123ae565b60608301905092915050565b6000602082019050919050565b600061242082612382565b61242a818561238d565b93506124358361239e565b8060005b8381101561246657815161244d88826123f0565b975061245883612408565b925050600181019050612439565b5085935050505092915050565b6000602082019050818103600083015261248d8184612415565b905092915050565b61249e81611d09565b81146124a957600080fd5b50565b6000813590506124bb81612495565b92915050565b600080604083850312156124d8576124d7611b7c565b5b60006124e685828601611bcf565b92505060206124f7858286016124ac565b9150509250929050565b6000806040838503121561251857612517611b7c565b5b600061252685828601611bcf565b925050602061253785828601611bcf565b9150509250929050565b600080600080600060a0868803121561255d5761255c611b7c565b5b600061256b88828901611bcf565b955050602061257c88828901611bcf565b945050604061258d88828901611c05565b935050606061259e88828901611c05565b925050608086013567ffffffffffffffff8111156125bf576125be611b81565b5b6125cb88828901611fed565b9150509295509295909350565b6000602082840312156125ee576125ed611b7c565b5b60006125fc84828501611bcf565b91505092915050565b6000819050919050565b600061262a61262561262084611b86565b612605565b611b86565b9050919050565b600061263c8261260f565b9050919050565b600061264e82612631565b9050919050565b61265e81612643565b82525050565b60006020820190506126796000830184612655565b92915050565b7f455243313135353a2061646472657373207a65726f206973206e6f742061207660008201527f616c6964206f776e657200000000000000000000000000000000000000000000602082015250565b60006126db602a83611d77565b91506126e68261267f565b604082019050919050565b6000602082019050818103600083015261270a816126ce565b9050919050565b7f4e487b7100000000000000000000000000000000000000000000000000000000600052602260045260246000fd5b6000600282049050600182168061275857607f821691505b60208210810361276b5761276a612711565b5b50919050565b7f455243313135353a2063616c6c6572206973206e6f7420746f6b656e206f776e60008201527f6572206f7220617070726f766564000000000000000000000000000000000000602082015250565b60006127cd602e83611d77565b91506127d882612771565b604082019050919050565b600060208201905081810360008301526127fc816127c0565b9050919050565b7f455243313135353a206163636f756e747320616e6420696473206c656e67746860008201527f206d69736d617463680000000000000000000000000000000000000000000000602082015250565b600061285f602983611d77565b915061286a82612803565b604082019050919050565b6000602082019050818103600083015261288e81612852565b9050919050565b7f4e487b7100000000000000000000000000000000000000000000000000000000600052603260045260246000fd5b7f4e487b7100000000000000000000000000000000000000000000000000000000600052601160045260246000fd5b60006128fe82611be4565b91507fffffffffffffffffffffffffffffffffffffffffffffffffffffffffffffffff82036129305761292f6128c4565b5b600182019050919050565b7f5061792074686520636f727265637420616d6f756e7400000000000000000000600082015250565b6000612971601683611d77565b915061297c8261293b565b602082019050919050565b600060208201905081810360008301526129a081612964565b9050919050565b7f596f7520617265206e6f74207065726d697474656420746f2063616c6c20746860008201527f69732066756e6374696f6e000000000000000000000000000000000000000000602082015250565b6000612a03602b83611d77565b9150612a0e826129a7565b604082019050919050565b60006020820190508181036000830152612a32816129f6565b9050919050565b6000612a4482611be4565b9150612a4f83611be4565b9250828203905081811115612a6757612a666128c4565b5b92915050565b7f4f776e61626c653a206e6577206f776e657220697320746865207a65726f206160008201527f6464726573730000000000000000000000000000000000000000000000000000602082015250565b6000612ac9602683611d77565b9150612ad482612a6d565b604082019050919050565b60006020820190508181036000830152612af881612abc565b9050919050565b7f455243313135353a2069647320616e6420616d6f756e7473206c656e6774682060008201527f6d69736d61746368000000000000000000000000000000000000000000000000602082015250565b6000612b5b602883611d77565b9150612b6682612aff565b604082019050919050565b60006020820190508181036000830152612b8a81612b4e565b9050919050565b7f455243313135353a207472616e7366657220746f20746865207a65726f20616460008201527f6472657373000000000000000000000000000000000000000000000000000000602082015250565b6000612bed602583611d77565b9150612bf882612b91565b604082019050919050565b60006020820190508181036000830152612c1c81612be0565b9050919050565b7f455243313135353a20696e73756666696369656e742062616c616e636520666f60008201527f72207472616e7366657200000000000000000000000000000000000000000000602082015250565b6000612c7f602a83611d77565b9150612c8a82612c23565b604082019050919050565b60006020820190508181036000830152612cae81612c72565b9050919050565b6000612cc082611be4565b9150612ccb83611be4565b9250828201905080821115612ce357612ce26128c4565b5b92915050565b60006040820190508181036000830152612d038185612285565b90508181036020830152612d178184612285565b90509392505050565b7f455243313135353a206d696e7420746f20746865207a65726f2061646472657360008201527f7300000000000000000000000000000000000000000000000000000000000000602082015250565b6000612d7c602183611d77565b9150612d8782612d20565b604082019050919050565b60006020820190508181036000830152612dab81612d6f565b9050919050565b6000604082019050612dc76000830185611c5a565b612dd46020830184611c5a565b9392505050565b7f4f776e61626c653a2063616c6c6572206973206e6f7420746865206f776e6572600082015250565b6000612e11602083611d77565b9150612e1c82612ddb565b602082019050919050565b60006020820190508181036000830152612e4081612e04565b9050919050565b7f455243313135353a2073657474696e6720617070726f76616c2073746174757360008201527f20666f722073656c660000000000000000000000000000000000000000000000602082015250565b6000612ea3602983611d77565b9150612eae82612e47565b604082019050919050565b60006020820190508181036000830152612ed281612e96565b9050919050565b600081519050919050565b600082825260208201905092915050565b6000612f0082612ed9565b612f0a8185612ee4565b9350612f1a818560208601611d88565b612f2381611db2565b840191505092915050565b600060a082019050612f436000830188612358565b612f506020830187612358565b8181036040830152612f628186612285565b90508181036060830152612f768185612285565b90508181036080830152612f8a8184612ef5565b90509695505050505050565b600081519050612fa581611cb0565b92915050565b600060208284031215612fc157612fc0611b7c565b5b6000612fcf84828501612f96565b91505092915050565b60008160e01c9050919050565b600060033d11156130045760046000803e613001600051612fd8565b90505b90565b600060443d1061309457613019611b72565b60043d036004823e80513d602482011167ffffffffffffffff82111715613041575050613094565b808201805167ffffffffffffffff81111561305f5750505050613094565b80602083010160043d03850181111561307c575050505050613094565b61308b82602001850186611e52565b82955050505050505b90565b7f455243313135353a207472616e7366657220746f206e6f6e2d4552433131353560008201527f526563656976657220696d706c656d656e746572000000000000000000000000602082015250565b60006130f3603483611d77565b91506130fe82613097565b604082019050919050565b60006020820190508181036000830152613122816130e6565b9050919050565b7f455243313135353a204552433131353552656365697665722072656a6563746560008201527f6420746f6b656e73000000000000000000000000000000000000000000000000602082015250565b6000613185602883611d77565b915061319082613129565b604082019050919050565b600060208201905081810360008301526131b481613178565b9050919050565b600060a0820190506131d06000830188612358565b6131dd6020830187612358565b6131ea6040830186611c5a565b6131f76060830185611c5a565b81810360808301526132098184612ef5565b9050969550505050505056fea264697066735822122064715cdc93a0ef7fca0bd74e748c31740836b1302a15b7fa679410c57dbaaf7a64736f6c63430008130033",
  "linkReferences": {},
  "deployedLinkReferences": {}
}