{
  "_format": "hh-sol-artifact-1",
  "contractName": "DAO",
  "sourceName": "contracts/DAOContract.sol",
  "abi": [
    {
      "anonymous": false,
      "inputs": [
        {
          "indexed": true,
          "internalType": "uint256",
          "name": "id",
          "type": "uint256"
        },
        {
          "indexed": true,
          "internalType": "address",
          "name": "executor",
          "type": "address"
        }
      ],
      "name": "ExecuteProposal",
      "type": "event"
    },
    {
      "anonymous": false,
      "inputs": [
        {
          "indexed": true,
          "internalType": "uint256",
          "name": "id",
          "type": "uint256"
        },
        {
          "indexed": true,
          "internalType": "address",
          "name": "creator",
          "type": "address"
        },
        {
          "indexed": false,
          "internalType": "string",
          "name": "description",
          "type": "string"
        }
      ],
      "name": "NewProposal",
      "type": "event"
    },
    {
      "anonymous": false,
      "inputs": [
        {
          "indexed": true,
          "internalType": "address",
          "name": "organization",
          "type": "address"
        },
        {
          "indexed": false,
          "internalType": "string",
          "name": "name",
          "type": "string"
        }
      ],
      "name": "RegisterOrganization",
      "type": "event"
    },
    {
      "anonymous": false,
      "inputs": [
        {
          "indexed": true,
          "internalType": "address",
          "name": "organization",
          "type": "address"
        },
        {
          "indexed": true,
          "internalType": "address",
          "name": "app",
          "type": "address"
        }
      ],
      "name": "SubmitApp",
      "type": "event"
    },
    {
      "anonymous": false,
      "inputs": [
        {
          "indexed": true,
          "internalType": "uint256",
          "name": "id",
          "type": "uint256"
        },
        {
          "indexed": true,
          "internalType": "address",
          "name": "voter",
          "type": "address"
        }
      ],
      "name": "Vote",
      "type": "event"
    },
    {
      "inputs": [
        {
          "internalType": "uint256",
          "name": "",
          "type": "uint256"
        }
      ],
      "name": "appProposals",
      "outputs": [
        {
          "internalType": "address",
          "name": "owner",
          "type": "address"
        },
        {
          "internalType": "address",
          "name": "appAddress",
          "type": "address"
        },
        {
          "internalType": "uint256",
          "name": "votes",
          "type": "uint256"
        }
      ],
      "stateMutability": "view",
      "type": "function"
    },
    {
      "inputs": [
        {
          "internalType": "address",
          "name": "",
          "type": "address"
        }
      ],
      "name": "balances",
      "outputs": [
        {
          "internalType": "uint256",
          "name": "",
          "type": "uint256"
        }
      ],
      "stateMutability": "view",
      "type": "function"
    },
    {
      "inputs": [
        {
          "internalType": "string",
          "name": "_description",
          "type": "string"
        }
      ],
      "name": "createProposal",
      "outputs": [],
      "stateMutability": "nonpayable",
      "type": "function"
    },
    {
      "inputs": [],
      "name": "deposit",
      "outputs": [],
      "stateMutability": "payable",
      "type": "function"
    },
    {
      "inputs": [
        {
          "internalType": "uint256",
          "name": "_proposalId",
          "type": "uint256"
        }
      ],
      "name": "executeProposal",
      "outputs": [],
      "stateMutability": "nonpayable",
      "type": "function"
    },
    {
      "inputs": [
        {
          "internalType": "address",
          "name": "",
          "type": "address"
        }
      ],
      "name": "isOrganization",
      "outputs": [
        {
          "internalType": "bool",
          "name": "",
          "type": "bool"
        }
      ],
      "stateMutability": "view",
      "type": "function"
    },
    {
      "inputs": [
        {
          "internalType": "address",
          "name": "",
          "type": "address"
        }
      ],
      "name": "isUser",
      "outputs": [
        {
          "internalType": "bool",
          "name": "",
          "type": "bool"
        }
      ],
      "stateMutability": "view",
      "type": "function"
    },
    {
      "inputs": [],
      "name": "numApps",
      "outputs": [
        {
          "internalType": "uint256",
          "name": "",
          "type": "uint256"
        }
      ],
      "stateMutability": "view",
      "type": "function"
    },
    {
      "inputs": [],
      "name": "numProposals",
      "outputs": [
        {
          "internalType": "uint256",
          "name": "",
          "type": "uint256"
        }
      ],
      "stateMutability": "view",
      "type": "function"
    },
    {
      "inputs": [
        {
          "internalType": "address",
          "name": "",
          "type": "address"
        }
      ],
      "name": "organizations",
      "outputs": [
        {
          "internalType": "string",
          "name": "name",
          "type": "string"
        }
      ],
      "stateMutability": "view",
      "type": "function"
    },
    {
      "inputs": [
        {
          "internalType": "uint256",
          "name": "",
          "type": "uint256"
        }
      ],
      "name": "proposals",
      "outputs": [
        {
          "internalType": "address",
          "name": "creator",
          "type": "address"
        },
        {
          "internalType": "string",
          "name": "description",
          "type": "string"
        },
        {
          "internalType": "uint256",
          "name": "votes",
          "type": "uint256"
        },
        {
          "internalType": "bool",
          "name": "executed",
          "type": "bool"
        }
      ],
      "stateMutability": "view",
      "type": "function"
    },
    {
      "inputs": [
        {
          "internalType": "string",
          "name": "_name",
          "type": "string"
        }
      ],
      "name": "registerOrganization",
      "outputs": [],
      "stateMutability": "nonpayable",
      "type": "function"
    },
    {
      "inputs": [],
      "name": "registerUser",
      "outputs": [],
      "stateMutability": "nonpayable",
      "type": "function"
    },
    {
      "inputs": [
        {
          "internalType": "address",
          "name": "_appAddress",
          "type": "address"
        }
      ],
      "name": "submitApp",
      "outputs": [],
      "stateMutability": "nonpayable",
      "type": "function"
    },
    {
      "inputs": [
        {
          "internalType": "uint256",
          "name": "_proposalId",
          "type": "uint256"
        }
      ],
      "name": "voteProposal",
      "outputs": [],
      "stateMutability": "nonpayable",
      "type": "function"
    },
    {
      "inputs": [
        {
          "internalType": "uint256",
          "name": "_amount",
          "type": "uint256"
        }
      ],
      "name": "withdraw",
      "outputs": [],
      "stateMutability": "nonpayable",
      "type": "function"
    }
  ],
  "bytecode": "0x608060405234801561001057600080fd5b50611e36806100206000396000f3fe6080604052600436106100f35760003560e01c80634d3820eb1161008a578063b1ce8eab11610059578063b1ce8eab14610329578063c4e3d1aa14610366578063d0e30db01461038f578063e004a56514610399576100f3565b80634d3820eb146102815780635a1f740614610298578063619eef97146102d5578063807896d514610300576100f3565b80632e1a7d4d116100c65780632e1a7d4d146101c7578063400e3949146101f05780634209fff11461021b57806349c2a1a614610258576100f3565b8063013cf08b146100f85780630d61b5191461013857806322dcdf681461016157806327e235e31461018a575b600080fd5b34801561010457600080fd5b5061011f600480360381019061011a9190611251565b6103d8565b60405161012f9493929190611379565b60405180910390f35b34801561014457600080fd5b5061015f600480360381019061015a9190611251565b6104bd565b005b34801561016d57600080fd5b50610188600480360381019061018391906114fa565b6105f0565b005b34801561019657600080fd5b506101b160048036038101906101ac919061156f565b610774565b6040516101be919061159c565b60405180910390f35b3480156101d357600080fd5b506101ee60048036038101906101e99190611251565b61078c565b005b3480156101fc57600080fd5b506102056108ae565b604051610212919061159c565b60405180910390f35b34801561022757600080fd5b50610242600480360381019061023d919061156f565b6108b4565b60405161024f91906115b7565b60405180910390f35b34801561026457600080fd5b5061027f600480360381019061027a91906114fa565b6108d4565b005b34801561028d57600080fd5b50610296610aa6565b005b3480156102a457600080fd5b506102bf60048036038101906102ba919061156f565b610b8c565b6040516102cc91906115d2565b60405180910390f35b3480156102e157600080fd5b506102ea610c32565b6040516102f7919061159c565b60405180910390f35b34801561030c57600080fd5b5061032760048036038101906103229190611251565b610c38565b005b34801561033557600080fd5b50610350600480360381019061034b919061156f565b610ea2565b60405161035d91906115b7565b60405180910390f35b34801561037257600080fd5b5061038d6004803603810190610388919061156f565b610ec2565b005b610397611145565b005b3480156103a557600080fd5b506103c060048036038101906103bb9190611251565b61119d565b6040516103cf939291906115f4565b60405180910390f35b60036020528060005260406000206000915090508060000160009054906101000a900473ffffffffffffffffffffffffffffffffffffffff16908060010180546104219061165a565b80601f016020809104026020016040519081016040528092919081815260200182805461044d9061165a565b801561049a5780601f1061046f5761010080835404028352916020019161049a565b820191906000526020600020905b81548152906001019060200180831161047d57829003601f168201915b5050505050908060020154908060030160009054906101000a900460ff16905084565b6003600082815260200190815260200160002060030160009054906101000a900460ff1615610521576040517f08c379a0000000000000000000000000000000000000000000000000000000008152600401610518906116d7565b60405180910390fd5b600060036000838152602001908152602001600020600201541161057a576040517f08c379a000000000000000000000000000000000000000000000000000000000815260040161057190611743565b60405180910390fd5b60016003600083815260200190815260200160002060030160006101000a81548160ff0219169083151502179055503373ffffffffffffffffffffffffffffffffffffffff16817f313d5b3dfe2769fe514446f70afca452ac1b0b40524fb0257cf2271a4b2e8c8b60405160405180910390a350565b6000803373ffffffffffffffffffffffffffffffffffffffff1673ffffffffffffffffffffffffffffffffffffffff16815260200190815260200160002060009054906101000a900460ff161561067c576040517f08c379a0000000000000000000000000000000000000000000000000000000008152600401610673906117af565b60405180910390fd5b60016000803373ffffffffffffffffffffffffffffffffffffffff1673ffffffffffffffffffffffffffffffffffffffff16815260200190815260200160002060006101000a81548160ff02191690831515021790555080600260003373ffffffffffffffffffffffffffffffffffffffff1673ffffffffffffffffffffffffffffffffffffffff1681526020019081526020016000206000019081610722919061197b565b503373ffffffffffffffffffffffffffffffffffffffff167fe191edab93dcedd4a646317289fded1d9665862550b031a14bd3c5b0bc0e50078260405161076991906115d2565b60405180910390a250565b60086020528060005260406000206000915090505481565b600860003373ffffffffffffffffffffffffffffffffffffffff1673ffffffffffffffffffffffffffffffffffffffff1681526020019081526020016000205481111561080e576040517f08c379a000000000000000000000000000000000000000000000000000000000815260040161080590611a99565b60405180910390fd5b80600860003373ffffffffffffffffffffffffffffffffffffffff1673ffffffffffffffffffffffffffffffffffffffff168152602001908152602001600020600082825461085d9190611ae8565b925050819055503373ffffffffffffffffffffffffffffffffffffffff166108fc829081150290604051600060405180830381858888f193505050501580156108aa573d6000803e3d6000fd5b5050565b60065481565b60016020528060005260406000206000915054906101000a900460ff1681565b600160003373ffffffffffffffffffffffffffffffffffffffff1673ffffffffffffffffffffffffffffffffffffffff16815260200190815260200160002060009054906101000a900460ff16610960576040517f08c379a000000000000000000000000000000000000000000000000000000000815260040161095790611b8e565b60405180910390fd5b60006006600081548092919061097590611bae565b91905055905060405180608001604052803373ffffffffffffffffffffffffffffffffffffffff16815260200183815260200160008152602001600015158152506003600083815260200190815260200160002060008201518160000160006101000a81548173ffffffffffffffffffffffffffffffffffffffff021916908373ffffffffffffffffffffffffffffffffffffffff1602179055506020820151816001019081610a25919061197b565b506040820151816002015560608201518160030160006101000a81548160ff0219169083151502179055509050503373ffffffffffffffffffffffffffffffffffffffff16817fec52604d01e140f3399ab5b3d380de6a94b1e77d78dc3fb61e432f9dafb0735d84604051610a9a91906115d2565b60405180910390a35050565b600160003373ffffffffffffffffffffffffffffffffffffffff1673ffffffffffffffffffffffffffffffffffffffff16815260200190815260200160002060009054906101000a900460ff1615610b33576040517f08c379a0000000000000000000000000000000000000000000000000000000008152600401610b2a90611c42565b60405180910390fd5b60018060003373ffffffffffffffffffffffffffffffffffffffff1673ffffffffffffffffffffffffffffffffffffffff16815260200190815260200160002060006101000a81548160ff021916908315150217905550565b6002602052806000526040600020600091509050806000018054610baf9061165a565b80601f0160208091040260200160405190810160405280929190818152602001828054610bdb9061165a565b8015610c285780601f10610bfd57610100808354040283529160200191610c28565b820191906000526020600020905b815481529060010190602001808311610c0b57829003601f168201915b5050505050905081565b60075481565b600160003373ffffffffffffffffffffffffffffffffffffffff1673ffffffffffffffffffffffffffffffffffffffff16815260200190815260200160002060009054906101000a900460ff16610cc4576040517f08c379a0000000000000000000000000000000000000000000000000000000008152600401610cbb90611b8e565b60405180910390fd5b6005600082815260200190815260200160002060003373ffffffffffffffffffffffffffffffffffffffff1673ffffffffffffffffffffffffffffffffffffffff16815260200190815260200160002060009054906101000a900460ff1615610d62576040517f08c379a0000000000000000000000000000000000000000000000000000000008152600401610d5990611cae565b60405180910390fd5b6003600082815260200190815260200160002060030160009054906101000a900460ff1615610dc6576040517f08c379a0000000000000000000000000000000000000000000000000000000008152600401610dbd90611d1a565b60405180910390fd5b600360008281526020019081526020016000206002016000815480929190610ded90611bae565b919050555060016005600083815260200190815260200160002060003373ffffffffffffffffffffffffffffffffffffffff1673ffffffffffffffffffffffffffffffffffffffff16815260200190815260200160002060006101000a81548160ff0219169083151502179055503373ffffffffffffffffffffffffffffffffffffffff16817f10a412bf229fbac2408912cb271b8ff9eb39eb72da91dd0c8accab0fb101113560405160405180910390a350565b60006020528060005260406000206000915054906101000a900460ff1681565b6000803373ffffffffffffffffffffffffffffffffffffffff1673ffffffffffffffffffffffffffffffffffffffff16815260200190815260200160002060009054906101000a900460ff16610f4d576040517f08c379a0000000000000000000000000000000000000000000000000000000008152600401610f4490611dac565b60405180910390fd5b600260003373ffffffffffffffffffffffffffffffffffffffff1673ffffffffffffffffffffffffffffffffffffffff168152602001908152602001600020600101819080600181540180825580915050600190039060005260206000200160009091909190916101000a81548173ffffffffffffffffffffffffffffffffffffffff021916908373ffffffffffffffffffffffffffffffffffffffff16021790555060405180606001604052803373ffffffffffffffffffffffffffffffffffffffff1681526020018273ffffffffffffffffffffffffffffffffffffffff168152602001600081525060046000600754815260200190815260200160002060008201518160000160006101000a81548173ffffffffffffffffffffffffffffffffffffffff021916908373ffffffffffffffffffffffffffffffffffffffff16021790555060208201518160010160006101000a81548173ffffffffffffffffffffffffffffffffffffffff021916908373ffffffffffffffffffffffffffffffffffffffff160217905550604082015181600201559050508073ffffffffffffffffffffffffffffffffffffffff163373ffffffffffffffffffffffffffffffffffffffff167f9ffd50a9f5b0e27b8588e79a56ea1713880253000a14bc91bb10ef0b9ab270b760405160405180910390a350565b34600860003373ffffffffffffffffffffffffffffffffffffffff1673ffffffffffffffffffffffffffffffffffffffff16815260200190815260200160002060008282546111949190611dcc565b92505081905550565b60046020528060005260406000206000915090508060000160009054906101000a900473ffffffffffffffffffffffffffffffffffffffff16908060010160009054906101000a900473ffffffffffffffffffffffffffffffffffffffff16908060020154905083565b6000604051905090565b600080fd5b600080fd5b6000819050919050565b61122e8161121b565b811461123957600080fd5b50565b60008135905061124b81611225565b92915050565b60006020828403121561126757611266611211565b5b60006112758482850161123c565b91505092915050565b600073ffffffffffffffffffffffffffffffffffffffff82169050919050565b60006112a98261127e565b9050919050565b6112b98161129e565b82525050565b600081519050919050565b600082825260208201905092915050565b60005b838110156112f95780820151818401526020810190506112de565b60008484015250505050565b6000601f19601f8301169050919050565b6000611321826112bf565b61132b81856112ca565b935061133b8185602086016112db565b61134481611305565b840191505092915050565b6113588161121b565b82525050565b60008115159050919050565b6113738161135e565b82525050565b600060808201905061138e60008301876112b0565b81810360208301526113a08186611316565b90506113af604083018561134f565b6113bc606083018461136a565b95945050505050565b600080fd5b600080fd5b7f4e487b7100000000000000000000000000000000000000000000000000000000600052604160045260246000fd5b61140782611305565b810181811067ffffffffffffffff82111715611426576114256113cf565b5b80604052505050565b6000611439611207565b905061144582826113fe565b919050565b600067ffffffffffffffff821115611465576114646113cf565b5b61146e82611305565b9050602081019050919050565b82818337600083830152505050565b600061149d6114988461144a565b61142f565b9050828152602081018484840111156114b9576114b86113ca565b5b6114c484828561147b565b509392505050565b600082601f8301126114e1576114e06113c5565b5b81356114f184826020860161148a565b91505092915050565b6000602082840312156115105761150f611211565b5b600082013567ffffffffffffffff81111561152e5761152d611216565b5b61153a848285016114cc565b91505092915050565b61154c8161129e565b811461155757600080fd5b50565b60008135905061156981611543565b92915050565b60006020828403121561158557611584611211565b5b60006115938482850161155a565b91505092915050565b60006020820190506115b1600083018461134f565b92915050565b60006020820190506115cc600083018461136a565b92915050565b600060208201905081810360008301526115ec8184611316565b905092915050565b600060608201905061160960008301866112b0565b61161660208301856112b0565b611623604083018461134f565b949350505050565b7f4e487b7100000000000000000000000000000000000000000000000000000000600052602260045260246000fd5b6000600282049050600182168061167257607f821691505b6020821081036116855761168461162b565b5b50919050565b7f50726f706f73616c20616c726561647920657865637574656400000000000000600082015250565b60006116c16019836112ca565b91506116cc8261168b565b602082019050919050565b600060208201905081810360008301526116f0816116b4565b9050919050565b7f4e6f20766f74657320666f722070726f706f73616c0000000000000000000000600082015250565b600061172d6015836112ca565b9150611738826116f7565b602082019050919050565b6000602082019050818103600083015261175c81611720565b9050919050565b7f4f7267616e697a6174696f6e20616c7265616479207265676973746572656400600082015250565b6000611799601f836112ca565b91506117a482611763565b602082019050919050565b600060208201905081810360008301526117c88161178c565b9050919050565b60008190508160005260206000209050919050565b60006020601f8301049050919050565b600082821b905092915050565b6000600883026118317fffffffffffffffffffffffffffffffffffffffffffffffffffffffffffffffff826117f4565b61183b86836117f4565b95508019841693508086168417925050509392505050565b6000819050919050565b600061187861187361186e8461121b565b611853565b61121b565b9050919050565b6000819050919050565b6118928361185d565b6118a661189e8261187f565b848454611801565b825550505050565b600090565b6118bb6118ae565b6118c6818484611889565b505050565b5b818110156118ea576118df6000826118b3565b6001810190506118cc565b5050565b601f82111561192f57611900816117cf565b611909846117e4565b81016020851015611918578190505b61192c611924856117e4565b8301826118cb565b50505b505050565b600082821c905092915050565b600061195260001984600802611934565b1980831691505092915050565b600061196b8383611941565b9150826002028217905092915050565b611984826112bf565b67ffffffffffffffff81111561199d5761199c6113cf565b5b6119a7825461165a565b6119b28282856118ee565b600060209050601f8311600181146119e557600084156119d3578287015190505b6119dd858261195f565b865550611a45565b601f1984166119f3866117cf565b60005b82811015611a1b578489015182556001820191506020850194506020810190506119f6565b86831015611a385784890151611a34601f891682611941565b8355505b6001600288020188555050505b505050505050565b7f496e73756666696369656e742062616c616e6365000000000000000000000000600082015250565b6000611a836014836112ca565b9150611a8e82611a4d565b602082019050919050565b60006020820190508181036000830152611ab281611a76565b9050919050565b7f4e487b7100000000000000000000000000000000000000000000000000000000600052601160045260246000fd5b6000611af38261121b565b9150611afe8361121b565b9250828203905081811115611b1657611b15611ab9565b5b92915050565b7f4f6e6c792075736572732063616e2063616c6c20746869732066756e6374696f60008201527f6e00000000000000000000000000000000000000000000000000000000000000602082015250565b6000611b786021836112ca565b9150611b8382611b1c565b604082019050919050565b60006020820190508181036000830152611ba781611b6b565b9050919050565b6000611bb98261121b565b91507fffffffffffffffffffffffffffffffffffffffffffffffffffffffffffffffff8203611beb57611bea611ab9565b5b600182019050919050565b7f5573657220616c72656164792072656769737465726564000000000000000000600082015250565b6000611c2c6017836112ca565b9150611c3782611bf6565b602082019050919050565b60006020820190508181036000830152611c5b81611c1f565b9050919050565b7f416c726561647920766f74656400000000000000000000000000000000000000600082015250565b6000611c98600d836112ca565b9150611ca382611c62565b602082019050919050565b60006020820190508181036000830152611cc781611c8b565b9050919050565b7f50726f706f73616c206578656375746564000000000000000000000000000000600082015250565b6000611d046011836112ca565b9150611d0f82611cce565b602082019050919050565b60006020820190508181036000830152611d3381611cf7565b9050919050565b7f4f6e6c79206f7267616e697a6174696f6e732063616e2063616c6c207468697360008201527f2066756e6374696f6e0000000000000000000000000000000000000000000000602082015250565b6000611d966029836112ca565b9150611da182611d3a565b604082019050919050565b60006020820190508181036000830152611dc581611d89565b9050919050565b6000611dd78261121b565b9150611de28361121b565b9250828201905080821115611dfa57611df9611ab9565b5b9291505056fea26469706673582212205ee416a1217d03b97372ef0aaf54e39dbb4b9ad341b6df9c472dd5192f219c7e64736f6c63430008130033",
  "linkReferences": {},
  "deployedLinkReferences": {}
}