{
  "_format": "hh-sol-artifact-1",
  "contractName": "StoreContract",
  "sourceName": "contracts/StoreContract.sol",
  "abi": [
    {
      "anonymous": false,
      "inputs": [
        {
          "indexed": true,
          "internalType": "uint256",
          "name": "appId",
          "type": "uint256"
        },
        {
          "indexed": true,
          "internalType": "address",
          "name": "buyer",
          "type": "address"
        },
        {
          "indexed": true,
          "internalType": "address",
          "name": "owner",
          "type": "address"
        },
        {
          "indexed": false,
          "internalType": "uint256",
          "name": "price",
          "type": "uint256"
        }
      ],
      "name": "AppInstalled",
      "type": "event"
    },
    {
      "anonymous": false,
      "inputs": [
        {
          "indexed": true,
          "internalType": "uint256",
          "name": "appId",
          "type": "uint256"
        },
        {
          "indexed": false,
          "internalType": "string",
          "name": "uri",
          "type": "string"
        },
        {
          "indexed": true,
          "internalType": "address",
          "name": "owner",
          "type": "address"
        },
        {
          "indexed": false,
          "internalType": "uint256",
          "name": "price",
          "type": "uint256"
        }
      ],
      "name": "AppUploaded",
      "type": "event"
    },
    {
      "inputs": [
        {
          "internalType": "uint256",
          "name": "",
          "type": "uint256"
        }
      ],
      "name": "allApp",
      "outputs": [
        {
          "internalType": "string",
          "name": "uri",
          "type": "string"
        },
        {
          "internalType": "address payable",
          "name": "owner",
          "type": "address"
        },
        {
          "internalType": "uint256",
          "name": "price",
          "type": "uint256"
        }
      ],
      "stateMutability": "view",
      "type": "function"
    },
    {
      "inputs": [],
      "name": "getAllAppURIs",
      "outputs": [
        {
          "internalType": "string[]",
          "name": "",
          "type": "string[]"
        }
      ],
      "stateMutability": "view",
      "type": "function"
    },
    {
      "inputs": [],
      "name": "getAllApps",
      "outputs": [
        {
          "components": [
            {
              "internalType": "string",
              "name": "uri",
              "type": "string"
            },
            {
              "internalType": "address payable",
              "name": "owner",
              "type": "address"
            },
            {
              "internalType": "uint256",
              "name": "price",
              "type": "uint256"
            }
          ],
          "internalType": "struct StoreContract.App[]",
          "name": "",
          "type": "tuple[]"
        }
      ],
      "stateMutability": "view",
      "type": "function"
    },
    {
      "inputs": [
        {
          "internalType": "uint256",
          "name": "_appId",
          "type": "uint256"
        }
      ],
      "name": "getApp",
      "outputs": [
        {
          "components": [
            {
              "internalType": "string",
              "name": "uri",
              "type": "string"
            },
            {
              "internalType": "address payable",
              "name": "owner",
              "type": "address"
            },
            {
              "internalType": "uint256",
              "name": "price",
              "type": "uint256"
            }
          ],
          "internalType": "struct StoreContract.App",
          "name": "",
          "type": "tuple"
        }
      ],
      "stateMutability": "view",
      "type": "function"
    },
    {
      "inputs": [
        {
          "internalType": "address",
          "name": "_owner",
          "type": "address"
        }
      ],
      "name": "getOwnerAppCount",
      "outputs": [
        {
          "internalType": "uint256",
          "name": "",
          "type": "uint256"
        }
      ],
      "stateMutability": "view",
      "type": "function"
    },
    {
      "inputs": [
        {
          "internalType": "address",
          "name": "_user",
          "type": "address"
        },
        {
          "internalType": "uint256",
          "name": "_index",
          "type": "uint256"
        }
      ],
      "name": "getUserAppURI",
      "outputs": [
        {
          "internalType": "string",
          "name": "",
          "type": "string"
        }
      ],
      "stateMutability": "view",
      "type": "function"
    },
    {
      "inputs": [
        {
          "internalType": "uint256",
          "name": "",
          "type": "uint256"
        }
      ],
      "name": "idToApp",
      "outputs": [
        {
          "internalType": "string",
          "name": "uri",
          "type": "string"
        },
        {
          "internalType": "address payable",
          "name": "owner",
          "type": "address"
        },
        {
          "internalType": "uint256",
          "name": "price",
          "type": "uint256"
        }
      ],
      "stateMutability": "view",
      "type": "function"
    },
    {
      "inputs": [
        {
          "internalType": "uint256",
          "name": "_appId",
          "type": "uint256"
        }
      ],
      "name": "installApp",
      "outputs": [],
      "stateMutability": "payable",
      "type": "function"
    },
    {
      "inputs": [
        {
          "internalType": "string",
          "name": "_appUri",
          "type": "string"
        },
        {
          "internalType": "uint256",
          "name": "_amount",
          "type": "uint256"
        }
      ],
      "name": "uploadAnApp",
      "outputs": [],
      "stateMutability": "nonpayable",
      "type": "function"
    }
  ],
  "bytecode": "0x608060405234801561001057600080fd5b50611c7e806100206000396000f3fe6080604052600436106100865760003560e01c8063876443f511610059578063876443f514610162578063afaa14831461019f578063b2bc2058146101dc578063b4394aa614610207578063ccdb8f071461023257610086565b806324f3a51b1461008b5780634e8f96a4146100c85780635703314514610107578063816f03d814610146575b600080fd5b34801561009757600080fd5b506100b260048036038101906100ad9190610f48565b61025b565b6040516100bf91906110a5565b60405180910390f35b3480156100d457600080fd5b506100ef60048036038101906100ea9190610f48565b61037a565b6040516100fe9392919061112f565b60405180910390f35b34801561011357600080fd5b5061012e60048036038101906101299190610f48565b61044c565b60405161013d9392919061112f565b60405180910390f35b610160600480360381019061015b9190610f48565b61052e565b005b34801561016e57600080fd5b50610189600480360381019061018491906111ab565b610781565b60405161019691906111eb565b60405180910390f35b3480156101ab57600080fd5b506101c660048036038101906101c1919061120d565b6109b6565b6040516101d3919061123a565b60405180910390f35b3480156101e857600080fd5b506101f1610a06565b6040516101fe9190611317565b60405180910390f35b34801561021357600080fd5b5061021c610b56565b604051610229919061144b565b60405180910390f35b34801561023e57600080fd5b50610259600480360381019061025491906115a2565b610ca7565b005b610263610ec7565b600260008381526020019081526020016000206040518060600160405290816000820180546102919061162d565b80601f01602080910402602001604051908101604052809291908181526020018280546102bd9061162d565b801561030a5780601f106102df5761010080835404028352916020019161030a565b820191906000526020600020905b8154815290600101906020018083116102ed57829003601f168201915b505050505081526020016001820160009054906101000a900473ffffffffffffffffffffffffffffffffffffffff1673ffffffffffffffffffffffffffffffffffffffff1673ffffffffffffffffffffffffffffffffffffffff1681526020016002820154815250509050919050565b600260205280600052604060002060009150905080600001805461039d9061162d565b80601f01602080910402602001604051908101604052809291908181526020018280546103c99061162d565b80156104165780601f106103eb57610100808354040283529160200191610416565b820191906000526020600020905b8154815290600101906020018083116103f957829003601f168201915b5050505050908060010160009054906101000a900473ffffffffffffffffffffffffffffffffffffffff16908060020154905083565b6000818154811061045c57600080fd5b906000526020600020906003020160009150905080600001805461047f9061162d565b80601f01602080910402602001604051908101604052809291908181526020018280546104ab9061162d565b80156104f85780601f106104cd576101008083540402835291602001916104f8565b820191906000526020600020905b8154815290600101906020018083116104db57829003601f168201915b5050505050908060010160009054906101000a900473ffffffffffffffffffffffffffffffffffffffff16908060020154905083565b6000600260008381526020019081526020016000209050806002015434101561058c576040517f08c379a0000000000000000000000000000000000000000000000000000000008152600401610583906116aa565b60405180910390fd5b8060010160009054906101000a900473ffffffffffffffffffffffffffffffffffffffff1673ffffffffffffffffffffffffffffffffffffffff163373ffffffffffffffffffffffffffffffffffffffff160361061e576040517f08c379a000000000000000000000000000000000000000000000000000000000815260040161061590611716565b60405180910390fd5b60008160010160009054906101000a900473ffffffffffffffffffffffffffffffffffffffff1673ffffffffffffffffffffffffffffffffffffffff163460405161066890611767565b60006040518083038185875af1925050503d80600081146106a5576040519150601f19603f3d011682016040523d82523d6000602084013e6106aa565b606091505b50509050806106ee576040517f08c379a00000000000000000000000000000000000000000000000000000000081526004016106e5906117c8565b60405180910390fd5b8160010160009054906101000a900473ffffffffffffffffffffffffffffffffffffffff1673ffffffffffffffffffffffffffffffffffffffff163373ffffffffffffffffffffffffffffffffffffffff16847f12d5f7a4e0cc5ac8914d41f0c81ebbcb2d0dd31780aeb83620801becdeb8fea48560020154604051610774919061123a565b60405180910390a4505050565b60606107ca600160008573ffffffffffffffffffffffffffffffffffffffff1673ffffffffffffffffffffffffffffffffffffffff168152602001908152602001600020610ea3565b821061080b576040517f08c379a000000000000000000000000000000000000000000000000000000000815260040161080290611834565b60405180910390fd5b6000805b600080549050811015610974578473ffffffffffffffffffffffffffffffffffffffff166000828154811061084757610846611854565b5b906000526020600020906003020160010160009054906101000a900473ffffffffffffffffffffffffffffffffffffffff1673ffffffffffffffffffffffffffffffffffffffff16036109615783820361095257600081815481106108af576108ae611854565b5b906000526020600020906003020160000180546108cb9061162d565b80601f01602080910402602001604051908101604052809291908181526020018280546108f79061162d565b80156109445780601f1061091957610100808354040283529160200191610944565b820191906000526020600020905b81548152906001019060200180831161092757829003601f168201915b5050505050925050506109b0565b818061095d906118b2565b9250505b808061096c906118b2565b91505061080f565b506040517f08c379a00000000000000000000000000000000000000000000000000000000081526004016109a790611946565b60405180910390fd5b92915050565b60006109ff600160008473ffffffffffffffffffffffffffffffffffffffff1673ffffffffffffffffffffffffffffffffffffffff168152602001908152602001600020610ea3565b9050919050565b606060008080549050905060008167ffffffffffffffff811115610a2d57610a2c611477565b5b604051908082528060200260200182016040528015610a6057816020015b6060815260200190600190039081610a4b5790505b50905060005b82811015610b4d5760008181548110610a8257610a81611854565b5b90600052602060002090600302016000018054610a9e9061162d565b80601f0160208091040260200160405190810160405280929190818152602001828054610aca9061162d565b8015610b175780601f10610aec57610100808354040283529160200191610b17565b820191906000526020600020905b815481529060010190602001808311610afa57829003601f168201915b5050505050828281518110610b2f57610b2e611854565b5b60200260200101819052508080610b45906118b2565b915050610a66565b50809250505090565b60606000805480602002602001604051908101604052809291908181526020016000905b82821015610c9e5783829060005260206000209060030201604051806060016040529081600082018054610bad9061162d565b80601f0160208091040260200160405190810160405280929190818152602001828054610bd99061162d565b8015610c265780601f10610bfb57610100808354040283529160200191610c26565b820191906000526020600020905b815481529060010190602001808311610c0957829003601f168201915b505050505081526020016001820160009054906101000a900473ffffffffffffffffffffffffffffffffffffffff1673ffffffffffffffffffffffffffffffffffffffff1673ffffffffffffffffffffffffffffffffffffffff16815260200160028201548152505081526020019060010190610b7a565b50505050905090565b600060405180606001604052808481526020013373ffffffffffffffffffffffffffffffffffffffff16815260200183815250905060008190806001815401808255809150506001900390600052602060002090600302016000909190919091506000820151816000019081610d1d9190611b12565b5060208201518160010160006101000a81548173ffffffffffffffffffffffffffffffffffffffff021916908373ffffffffffffffffffffffffffffffffffffffff16021790555060408201518160020155505060006001600080549050610d859190611be4565b905081600260008381526020019081526020016000206000820151816000019081610db09190611b12565b5060208201518160010160006101000a81548173ffffffffffffffffffffffffffffffffffffffff021916908373ffffffffffffffffffffffffffffffffffffffff16021790555060408201518160020155905050610e4c600160003373ffffffffffffffffffffffffffffffffffffffff1673ffffffffffffffffffffffffffffffffffffffff168152602001908152602001600020610eb1565b3373ffffffffffffffffffffffffffffffffffffffff16817fe0c53f69f3239cd34b15f08f54eba9892724647e77800ba8308964e7fcde985f8686604051610e95929190611c18565b60405180910390a350505050565b600081600001549050919050565b6001816000016000828254019250508190555050565b604051806060016040528060608152602001600073ffffffffffffffffffffffffffffffffffffffff168152602001600081525090565b6000604051905090565b600080fd5b600080fd5b6000819050919050565b610f2581610f12565b8114610f3057600080fd5b50565b600081359050610f4281610f1c565b92915050565b600060208284031215610f5e57610f5d610f08565b5b6000610f6c84828501610f33565b91505092915050565b600081519050919050565b600082825260208201905092915050565b60005b83811015610faf578082015181840152602081019050610f94565b60008484015250505050565b6000601f19601f8301169050919050565b6000610fd782610f75565b610fe18185610f80565b9350610ff1818560208601610f91565b610ffa81610fbb565b840191505092915050565b600073ffffffffffffffffffffffffffffffffffffffff82169050919050565b600061103082611005565b9050919050565b61104081611025565b82525050565b61104f81610f12565b82525050565b600060608301600083015184820360008601526110728282610fcc565b91505060208301516110876020860182611037565b50604083015161109a6040860182611046565b508091505092915050565b600060208201905081810360008301526110bf8184611055565b905092915050565b600082825260208201905092915050565b60006110e382610f75565b6110ed81856110c7565b93506110fd818560208601610f91565b61110681610fbb565b840191505092915050565b61111a81611025565b82525050565b61112981610f12565b82525050565b6000606082019050818103600083015261114981866110d8565b90506111586020830185611111565b6111656040830184611120565b949350505050565b600061117882611005565b9050919050565b6111888161116d565b811461119357600080fd5b50565b6000813590506111a58161117f565b92915050565b600080604083850312156111c2576111c1610f08565b5b60006111d085828601611196565b92505060206111e185828601610f33565b9150509250929050565b6000602082019050818103600083015261120581846110d8565b905092915050565b60006020828403121561122357611222610f08565b5b600061123184828501611196565b91505092915050565b600060208201905061124f6000830184611120565b92915050565b600081519050919050565b600082825260208201905092915050565b6000819050602082019050919050565b600061128d8383610fcc565b905092915050565b6000602082019050919050565b60006112ad82611255565b6112b78185611260565b9350836020820285016112c985611271565b8060005b8581101561130557848403895281516112e68582611281565b94506112f183611295565b925060208a019950506001810190506112cd565b50829750879550505050505092915050565b6000602082019050818103600083015261133181846112a2565b905092915050565b600081519050919050565b600082825260208201905092915050565b6000819050602082019050919050565b600060608301600083015184820360008601526113828282610fcc565b91505060208301516113976020860182611037565b5060408301516113aa6040860182611046565b508091505092915050565b60006113c18383611365565b905092915050565b6000602082019050919050565b60006113e182611339565b6113eb8185611344565b9350836020820285016113fd85611355565b8060005b85811015611439578484038952815161141a85826113b5565b9450611425836113c9565b925060208a01995050600181019050611401565b50829750879550505050505092915050565b6000602082019050818103600083015261146581846113d6565b905092915050565b600080fd5b600080fd5b7f4e487b7100000000000000000000000000000000000000000000000000000000600052604160045260246000fd5b6114af82610fbb565b810181811067ffffffffffffffff821117156114ce576114cd611477565b5b80604052505050565b60006114e1610efe565b90506114ed82826114a6565b919050565b600067ffffffffffffffff82111561150d5761150c611477565b5b61151682610fbb565b9050602081019050919050565b82818337600083830152505050565b6000611545611540846114f2565b6114d7565b90508281526020810184848401111561156157611560611472565b5b61156c848285611523565b509392505050565b600082601f8301126115895761158861146d565b5b8135611599848260208601611532565b91505092915050565b600080604083850312156115b9576115b8610f08565b5b600083013567ffffffffffffffff8111156115d7576115d6610f0d565b5b6115e385828601611574565b92505060206115f485828601610f33565b9150509250929050565b7f4e487b7100000000000000000000000000000000000000000000000000000000600052602260045260246000fd5b6000600282049050600182168061164557607f821691505b602082108103611658576116576115fe565b5b50919050565b7f496e73756666696369656e742046756e64730000000000000000000000000000600082015250565b60006116946012836110c7565b915061169f8261165e565b602082019050919050565b600060208201905081810360008301526116c381611687565b9050919050565b7f4f776e65722063616e277420646f776e6c6f6164000000000000000000000000600082015250565b60006117006014836110c7565b915061170b826116ca565b602082019050919050565b6000602082019050818103600083015261172f816116f3565b9050919050565b600081905092915050565b50565b6000611751600083611736565b915061175c82611741565b600082019050919050565b600061177282611744565b9150819050919050565b7f4661696c656420746f2073656e64204574686572000000000000000000000000600082015250565b60006117b26014836110c7565b91506117bd8261177c565b602082019050919050565b600060208201905081810360008301526117e1816117a5565b9050919050565b7f496e646578206f7574206f662072616e67650000000000000000000000000000600082015250565b600061181e6012836110c7565b9150611829826117e8565b602082019050919050565b6000602082019050818103600083015261184d81611811565b9050919050565b7f4e487b7100000000000000000000000000000000000000000000000000000000600052603260045260246000fd5b7f4e487b7100000000000000000000000000000000000000000000000000000000600052601160045260246000fd5b60006118bd82610f12565b91507fffffffffffffffffffffffffffffffffffffffffffffffffffffffffffffffff82036118ef576118ee611883565b5b600182019050919050565b7f417070206e6f7420666f756e6400000000000000000000000000000000000000600082015250565b6000611930600d836110c7565b915061193b826118fa565b602082019050919050565b6000602082019050818103600083015261195f81611923565b9050919050565b60008190508160005260206000209050919050565b60006020601f8301049050919050565b600082821b905092915050565b6000600883026119c87fffffffffffffffffffffffffffffffffffffffffffffffffffffffffffffffff8261198b565b6119d2868361198b565b95508019841693508086168417925050509392505050565b6000819050919050565b6000611a0f611a0a611a0584610f12565b6119ea565b610f12565b9050919050565b6000819050919050565b611a29836119f4565b611a3d611a3582611a16565b848454611998565b825550505050565b600090565b611a52611a45565b611a5d818484611a20565b505050565b5b81811015611a8157611a76600082611a4a565b600181019050611a63565b5050565b601f821115611ac657611a9781611966565b611aa08461197b565b81016020851015611aaf578190505b611ac3611abb8561197b565b830182611a62565b50505b505050565b600082821c905092915050565b6000611ae960001984600802611acb565b1980831691505092915050565b6000611b028383611ad8565b9150826002028217905092915050565b611b1b82610f75565b67ffffffffffffffff811115611b3457611b33611477565b5b611b3e825461162d565b611b49828285611a85565b600060209050601f831160018114611b7c5760008415611b6a578287015190505b611b748582611af6565b865550611bdc565b601f198416611b8a86611966565b60005b82811015611bb257848901518255600182019150602085019450602081019050611b8d565b86831015611bcf5784890151611bcb601f891682611ad8565b8355505b6001600288020188555050505b505050505050565b6000611bef82610f12565b9150611bfa83610f12565b9250828203905081811115611c1257611c11611883565b5b92915050565b60006040820190508181036000830152611c3281856110d8565b9050611c416020830184611120565b939250505056fea26469706673582212201cccdcc7c2fc54f429973ad12ae954a2b7c5064288e04b39c7c8aa103ec20f6564736f6c63430008130033",
  "linkReferences": {},
  "deployedLinkReferences": {}
}